:100000000C94E0000C9408010C9408010C94080175
:100010000C9408010C9408010C9408010C9408013C
:100020000C9408010C9408010C9408010C94040829
:100030000C9408010C9408010C9408010C9408011C
:100040000C94BA070C9408010C9488070C9462076E
:100050000C9408010C9408010C9408010C940801FC
:100060000C9408010C94080163825363000108009A
:100070000604000100000000240027002A00000000
:100080000000250028002B000404040404040404D8
:100090000202020202020303030303030102040833
:1000A00010204080010204081020010204081020E2
:1000B0000000000800020100000304070000000027
:1000C0000000000045000082000040002048545419
:1000D000502F312E302035303320536572766963CE
:1000E0006520556E617661696C61626C650D0A43CD
:1000F0006F6E74656E742D547970653A20746578EE
:10010000742F68746D6C0D0A52657472792D416696
:100110007465723A203630300D0A0D0A3C68746DF1
:100120006C3E3C686561643E3C7469746C653E5429
:100130007567617320496F542031333C2F746974A3
:100140006C653E3C2F686561643E3C626F64793E3D
:100150003C68333E496E74616E204E61756D693C3A
:100160002F68333E3C703E3C656D3E56333932302D
:100170003032383C6272202F3E3238205365707422
:10018000656D62657220323030303C6272202F3EE5
:10019000696E74616E616F6D69323840676D616957
:1001A0006C2E636F6D3C2F656D3E3C2F703E3C2F77
:1001B000626F64793E3C2F68746D6C3E0000630E84
:1001C00011241FBECFEFD8E0DEBFCDBF11E0A0E00D
:1001D000B1E0E4EDFDE102C005900D92AE38B1074B
:1001E000D9F724E0AEE8B1E001C01D92A83AB20709
:1001F000E1F710E0C0EED0E004C02197FE010E94BC
:10020000D50ECF3DD107C9F70E9468080C94E80EBF
:100210000C940000CF93DF93209107042223C1F0B8
:10022000FC0120812223A1F0C7E0D4E0A3E0B4E0E8
:100230009C012C5F3F4F899141919D918427892397
:1002400039F4E217F307B9F781E0DF91CF91089510
:1002500080E0FBCFAF92BF92CF92DF92EF92FF92FE
:100260000F931F93CF93DF936C017B018B01040FDE
:10027000151FEB015E01AE18BF08C017D10759F07A
:100280006991D601ED91FC910190F081E02DC601BC
:100290000995892B79F7C501DF91CF911F910F91B6
:1002A000FF90EF90DF90CF90BF90AF900895FC014A
:1002B000538D448D252F30E0842F90E0821B930BCB
:1002C000541710F0CF96089501970895FC01918D71
:1002D000828D981761F0A28DAE0FBF2FB11D5D9674
:1002E0008C91928D9F5F9F73928F90E008958FEF16
:1002F0009FEF0895FC01918D828D981731F0828DCA
:10030000E80FF11D858D90E008958FEF9FEF089520
:10031000FC01918D228D892F90E0805C9F4F821B84
:1003200091098F73992708958BE094E00E948801CA
:1003300021E0892B09F420E0822F089580E090E0ED
:10034000892B29F00E94940181110C9400000895DA
:10035000FC01A48DA80FB92FB11DA35ABF4F2C913A
:10036000848D90E001968F739927848FA689B78931
:100370002C93A089B1898C91837080648C93938D28
:10038000848D981306C00288F389E02D80818F7DCB
:1003900080830895EF92FF920F931F93CF93DF9383
:1003A000EC0181E0888F9B8D8C8D98131AC0E889B1
:1003B000F989808185FF15C09FB7F894EE89FF8980
:1003C0006083E889F98980818370806480839FBF1E
:1003D00081E090E0DF91CF911F910F91FF90EF901E
:1003E0000895F62E0B8D10E00F5F1F4F0F7311272E
:1003F000E02E8C8D8E110CC00FB607FCFACFE88969
:10040000F989808185FFF5CFCE010E94A801F1CF47
:10041000EB8DEC0FFD2FF11DE35AFF4FF0829FB7DC
:10042000F8940B8FEA89FB8980818062CFCFCF93CC
:10043000DF93EC01888D8823B9F0AA89BB89E8890C
:10044000F9898C9185FD03C0808186FD0DC00FB6B2
:1004500007FCF7CF8C9185FFF2CF808185FFEDCF30
:10046000CE010E94A801E9CFDF91CF91089590E0DD
:10047000FC01E055FF4F2491FC01E456FF4F3491FD
:10048000FC01E857FF4FE491EE23C9F0222339F035
:10049000233001F1A8F4213019F1223029F1F0E0E4
:1004A000EE0FFF1FE258FF4FA591B4918FB7F8945C
:1004B000EC91611126C030953E233C938FBF089587
:1004C0002730A9F02830C9F0243049F78091800006
:1004D0008F7D03C0809180008F7780938000DFCF75
:1004E00084B58F7784BDDBCF84B58F7DFBCF8091C2
:1004F000B0008F778093B000D2CF8091B0008F7D15
:10050000F9CF3E2BDACFCF93DF9390E0FC01E45696
:10051000FF4F249188579F4FFC0184918823D1F08D
:1005200090E0880F991FFC01EC58FF4FA591B49102
:10053000FC01E258FF4FC591D49161110EC09FB7E5
:10054000F8948C91E22FE0958E238C932881E223FE
:10055000E8839FBFDF91CF9108958FB7F894EC9116
:10056000E22BEC938FBFF6CF3FB7F8948091BB019D
:100570009091BC01A091BD01B091BE0126B5A89B90
:1005800005C02F3F19F00196A11DB11D3FBFBA2F25
:10059000A92F982F8827BC01CD01620F711D811DE5
:1005A000911D42E0660F771F881F991F4A95D1F76A
:1005B00008952FB7F8946091B7017091B8018091B8
:1005C000B9019091BA012FBF089580911F029091B7
:1005D0002002982789279827449720913D0230E0F0
:1005E00044E0359527954A95E1F7220F331F220FF6
:1005F000331F821B930B97FF02C090E080E00895A9
:100600002091330230913102309333022093310232
:10061000209134023091320230933402209332021E
:10062000EFE0F2E021A5820F911D25A585A76623A5
:1006300081F021A7892F9927319722E0EB30F2072B
:1006400089F7109241021092420280E580933D02A8
:10065000089511A6EFCF0F931F93CF93DF9370E010
:10066000615F7D4F8A01075F1F4F213029F02230E3
:1006700031F48A010250110930E020E003C000E0AB
:1006800010E09801EB01FA01E230F10558F0A99170
:10069000B991BA27AB27BA270A0F1B1F211D311D9D
:1006A0003297F2CFFA01EE7F6E0F7F1F4E175F0772
:1006B00069F0FB01408150E070E060E0762F652F2B
:1006C000542F4427040F151F261F371FA901662723
:1006D0007727411551056105710519F02227332748
:1006E000F1CF00951095E82FF0E0E15FFD4F10830A
:1006F0000183DF91CF911F910F910895EFE0F2E018
:10070000108E118E80E4848B158A868B20E044E164
:1007100050E06EE088E10C942B038EBD0DB407FE13
:10072000FDCF089561E08091BF010E943702789467
:100730000895F89460E08091BF010C9437020F9304
:100740001F93CF93DF93EC018B010E9499032097B5
:10075000B9F08AE30E948D031EBCF801CE01019717
:1007600039F00DB407FEFDCF2EB51EBC2193F7CF97
:100770002197C00FD11F0DB407FEFDCF8EB5888322
:10078000DF91CF911F910F910C9492031F93CF9300
:10079000DF93182FC62FD42F0E9499038C2F8F71AF
:1007A000812B0E948D038D2F0E948D03DF91CF91AD
:1007B0001F910C949203CF93C82FC0768091B501FE
:1007C0008C1799F043E06FE180EA0E94C603C09362
:1007D000B5014C2F50E085E0559547958A95E1F796
:1007E0006FE180E8CF910C94C603CF910895CF9329
:1007F000DF93C82FD62F0E94DB034D2F6C2F80E490
:10080000DF91CF910C94C603CF93DF93C82FD72FDE
:100810000E94F7036D2F81E08C0FDF91CF910C9434
:10082000F703CF93C82F0E94DB030E9499038C2FFC
:100830008F710E948D0380E00E948D03C7FF03C06B
:1008400080E00E948D03CEB50E9492038C2FCF9141
:100850000895CF93DF93EC0140E86FE180E80E94B8
:10086000C60340E86FE180EA0E94C6034AE06CE1FB
:1008700080EA0E94C60360E07CE082E00E940404FB
:10088000BE01745F86E00E94040440E060E08AE7F5
:100890000E94C6030E9499032097B1F08AE70E9444
:1008A0008D0380910F028EBDE0E1F2E0C15FDD4F6C
:1008B000EC17FD0731F081910DB407FEFDCF8EBD21
:1008C000F7CF0DB407FEFDCF0E94920348E06FE121
:1008D00080E80E94C603D0E0C0E08CE10E941104D1
:1008E0008A7029F42196C83E83E0D807B1F78CE1DD
:1008F0000E94110481FD03C0C83ED34039F448E092
:100900006FE180EADF91CF910C94C603DF91CF9124
:1009100008950F931F93CF93DF938C018896CFE0B8
:10092000D2E0988B898B0E947E031AAA1BAAA80189
:10093000445E5F4F22E06AE182E30E942B03C8011C
:10094000C696DF91CF911F910F910C942904CF93FC
:10095000DF93EB01682F84ED0E94F703BE0186ED63
:100960000E9404048AEE0E94110480FDFBCFDF91F7
:10097000CF910895CF92DF92EF92FF920F931F9342
:100980008634910568F120913202233449F5C090F4
:100990003D02D0903E02E0903F02F0904002009174
:1009A000D1011091D2012091D3013091D401C01610
:1009B000D106E206F306A1F4E9E2F3E0815F9D4F80
:1009C0009F012E5F3F4F41815081553319F4528171
:1009D000651771F0F901E40FF11DE817F90780F3CD
:1009E00080E01F910F91FF90EF90DF90CF900895DE
:1009F00081E0F7CFE091B301F091B4019F012F5F47
:100A00003F4F3093B4012093B30180830895FF9248
:100A10000F931F93CF93DF93162FF42E052F0E9471
:100A2000FA04812F0E94FA04CF2DD02F115020F00C
:100A300089910E94FA04FACFDF91CF911F910F9113
:100A4000FF900895FC0101900020E9F73197AF0174
:100A5000481B590BBC018BE094E00C942A018F9247
:100A60009F92AF92BF92CF92DF92EF92FF921F932D
:100A7000CF93DF93CDB7DEB7A1970FB6F894DEBF63
:100A80000FBECDBFD62E172F0E942205ED2CF12EC2
:100A900010E08AE0882E912CA12CB12CF701219135
:100AA0007F0130E050E040E019A26E01F1E2CF0E8C
:100AB000D11CCA01B901A50194010E94A40E605D78
:100AC000F60162936F01211531054105510589F742
:100AD000309719F0CF010E942205133029F06EE201
:100AE0008BE094E00E94CA011F5F1430B9F688E4DD
:100AF00091E00E942205A1960FB6F894DEBF0FBECA
:100B0000CDBFDF91CF911F91FF90EF90DF90CF90FD
:100B1000BF90AF909F908F900895DC0196E0FB010D
:100B200001900D929A95E1F70895CF93DF93EB0131
:100B300044E050E0BC018BE292E00E94DB0E892B86
:100B400049F465E272E0CE010E948D0581E0DF91FB
:100B5000CF91089580E0FBCFBC018FE092E00E942E
:100B60008D0562EE71E085E192E00C948D05DC016B
:100B700094E0FB0101900D929A95E1F708950F938F
:100B80001F93CF938C0182E491E00E94AC05EFE0CB
:100B9000F2E088E08487C6E0C58748E050E06CE674
:100BA00070E08DE192E00E94900EEFE2F2E0DF0152
:100BB0001D92CA95E9F762EE71E085E292E00E942B
:100BC0008D05B80185E392E00E94B70567E074E007
:100BD0008BE292E00E94B7058AE290E0CF911F91EC
:100BE0000F910C94290485E192E00E94AC0569E222
:100BF00072E08DE292E00E94B70567E074E089E25E
:100C000092E00E94B7050C947E03262F206120936A
:100C10003E02643021F0009711F481E090E061E041
:100C20000E94000310921F0288E2809320020E941B
:100C3000F30584E080933F021092400222E04CE1F1
:100C400050E06AE182E30E942B0386E390E00C947B
:100C50002904CF93DF93EB010E94AC05BE018DE226
:100C600092E00E94B70567E074E089E292E0DF91CC
:100C7000CF910C94B705EF92FF920F931F93CF93F0
:100C8000DF938C01EFE0F2E086E191E0DF019C016F
:100C90001D9221503040E1F78091E101C2E4D1E0A2
:100CA000833011F4CCECD1E0CE010E940A01BE01E8
:100CB000882309F4ACC08CEE91E00E94290688815B
:100CC000807F803E91F088819981AA81BB818F3F8E
:100CD0009F4FAF4FBF4F49F044E050E0BE0188EE58
:100CE00091E00E94DB0E892B31F462E471E08FE029
:100CF00092E00E948D0588E080931B0210921C02F6
:100D000049E050E064EC70E08DE192E00E94900ECA
:100D100010921F0281E1809326021092330283E435
:100D2000809334021092310284E480933202109254
:100D30003502109237021092380262E471E08FE0BF
:100D400092E00E948D0581E08093390280933A02FF
:100D500086E080933B028091D1019091D201A091D5
:100D6000D301B091D40180933D0290933E02A093B1
:100D70003F02B0934002C091E101C33031F467E01B
:100D800074E085E492E00E94B70562EE71E085E5CB
:100D900092E00E948D0585E293E09093B4018093E8
:100DA000B301E8E6F0E084910E94FA04E9E6F0E09D
:100DB00084910E94FA04EAE6F0E084910E94FA0429
:100DC000EBE6F0E084910E94FA0485E30E94FA04C5
:100DD00081E00E94FA0483E0C11101C081E00E9419
:100DE000FA048DE30E94FA0487E00E94FA0481E08D
:100DF0000E94FA0482EEE82E81E0F82EC7E0C1508E
:100E000049F0D7018D917D010E94FA04F8CF82EF5D
:100E100091E053CF80910001882371F060E071E090
:100E2000FB0101900020E9F7BF016150714040E0F3
:100E300051E08CE00E9407050115110559F0A80149
:100E400064E082E30E9407054CEC51E064E086E335
:100E50000E94070587E30E94FA0483E00E94FA04D7
:100E600081E00E94FA0483E00E94FA0486E00E9476
:100E7000FA048FEF0E94FA04C091B301D091B4013B
:100E8000C953D240CE014C9690931F02809320020A
:100E90000E947E03CE01089690933502809336021D
:100EA000AE01405F5F4F21E06AE188E20E942B03C0
:100EB000CE018A96DF91CF911F910F91FF90EF9015
:100EC0000C9429041F920F920FB60F9211242F93A6
:100ED0003F934F935F936F937F938F939F93AF93C2
:100EE000BF93EF93FF938BE094E00E94A801FF91E2
:100EF000EF91BF91AF919F918F917F916F915F9192
:100F00004F913F912F910F900FBE0F901F9018950A
:100F10001F920F920FB60F9211242F938F939F93CE
:100F2000EF93FF93E0911B04F0911C048081E0910A
:100F30002104F091220482FD1BC090818091240441
:100F40008F5F8F7320912504821741F0E091240474
:100F5000F0E0E55FFB4F958F80932404FF91EF91C4
:100F60009F918F912F910F900FBE0F901F9018950A
:100F70008081F4CF1F920F920FB60F9211242F93FE
:100F80003F938F939F93AF93BF938091B7019091BD
:100F9000B801A091B901B091BA013091B60123E036
:100FA000230F2D3758F50196A11DB11D2093B601D1
:100FB0008093B7019093B801A093B901B093BA019F
:100FC0008091BB019091BC01A091BD01B091BE0187
:100FD0000196A11DB11D8093BB019093BC01A0930C
:100FE000BD01B093BE01BF91AF919F918F913F9191
:100FF0002F910F900FBE0F901F90189526E8230F8A
:101000000296A11DB11DD2CF1F920F920FB60F9263
:1010100011242F933F938F939F93EF93FF9380918E
:10102000B20187FF1FC0109285001092840080914A
:10103000B2018F5F8093B2018091B20187FF04C03B
:101040008091B2018C30ACF0809184009091850049
:10105000049680349C4990F18091840090918500A1
:1010600004962EC08091B20187FFE1CF8091B2013A
:10107000DECF2091840030918500E091B2018E2F67
:10108000EE0F990BFC01EE0FFF1FE80FF91FE2575F
:10109000FE4F81819281820F931F909389008093EC
:1010A00088008091B201FF91EF919F918F913F91C4
:1010B0002F910F900FBE0F901F90189580E49CE920
:1010C00090938900809388008FEF8093B201EBCFDB
:1010D000CF93DF9300D000D000D0CDB7DEB77894A7
:1010E00084B5826084BD84B5816084BD85B582602D
:1010F00085BD85B5816085BD80916E0081608093DE
:101100006E00109281008091810082608093810046
:101110008091810081608093810080918000816056
:10112000809380008091B10084608093B1008091B1
:10113000B00081608093B00080917A0084608093D9
:101140007A0080917A00826080937A0080917A00A0
:10115000816080937A0080917A00806880937A0021
:101160001092C100E0911B04F0911C0482E0808386
:10117000E0911B04F0911C041082E0911704F0919F
:1011800018041082E0911904F0911A0480E1808320
:1011900010922304E0911F04F091200486E08083E4
:1011A000E0911D04F0911E04808180618083E091B4
:1011B0001D04F0911E04808188608083E0911D04ED
:1011C000F0911E04808180688083E0911D04F0917D
:1011D0001E0480818F7D80838BE491E00E94220534
:1011E00088E491E00E94220510920C0287E390E0CF
:1011F000C12CD12C7601C3940097C1F0FC0123E0EF
:10120000F595E7952A95E1F7E054FE4F282F2770D2
:10121000B701A60104C0440F551F661F771F2A950A
:10122000D2F72081242B20830197E6CF68E271E07A
:1012300082EE91E00E948D0584EF91E09093C801C9
:101240008093C7010CB406FC25C061E08AE00E94CF
:10125000830261E08AE00E94370261E08BE00E9435
:10126000830261E08DE00E94830260E08CE00E94D6
:10127000830261E08BE00E94370260E08BE00E9415
:10128000370260E08DE00E94370280E58CBD8DB5AD
:1012900081608DBD8AE08093BF0161E00E9483027E
:1012A0000E9492034FEF60E08FEF0E94C6030E94FE
:1012B000B4026B017C0192E0892E912CA12CB12CFF
:1012C0000E94B4026C197D098E099F09683E734023
:1012D00081059105A8F328EEC20E23E0D21EE11C81
:1012E000F11C8A9489288A288B2829F0812C912C3A
:1012F00054018394E5CF0E9499038DE10E948D03F0
:1013000080E00E948D031EB50E949203112399F381
:1013100070E060E088E00E94040470E060E08CE02F
:101320000E9404046FEF7BE08AE00E94040460E006
:101330007CE084E00E9404046FEF71E186E00E948B
:10134000040466E774E084E10E94A70461EB88E38B
:101350000E94F7036FE370E388E20E94040469EFE0
:1013600077EF80E30E94040461E080EC0E94F703C1
:1013700042E362EC80E80E94C60362E17CE086EC16
:101380000E94040462E184EC0E94F7036CED75E0B6
:101390008AEC0E9404046091E20184EE0E94F7034B
:1013A0006091E30185EE0E94F7036091E40182EE13
:1013B0000E94F7036091E50183EE0E94F7036091BC
:1013C000E60180EE0E94F7036091E70181EE0E9442
:1013D000F70360E071E080E10E94A7048FE10E94C2
:1013E000DB0340EC6BE180E80E94C60344E06FE160
:1013F00080E80E94C60382E70E941104863008F04C
:101400008F5F811108C087E591E00E94220588E482
:1014100091E00E94220510920C0264E271E087E0E4
:1014200094E00E94B70510920A021092090281E02E
:1014300080930B0260E271E085E092E00E94B705C4
:10144000E7E0F4E023E034E048EE51E09191D90187
:101450008D919D018095892BDA018D93AD01B4E0CA
:10146000EB30FB0799F767E074E08CE791E00E94AE
:101470002F0565E072E082E891E00E942F0560E0B0
:1014800072E088E891E00E942F0514E0E12EFF242D
:10149000F39403E0702EECE26E2EF0E65F2EA8E7E8
:1014A0003A2EB6E04B2E8091CB01882379F06091E3
:1014B000C9017091CA016115710509F030C16FEF62
:1014C0007BE08CE00E9404041092CB0189E30E942F
:1014D000110410E000E08823C1F16091C90170910E
:1014E000CA0180E00E940404BE016F5F7F4F86E066
:1014F00090E00E949F0389819A819093CA01809312
:10150000C9018D819E818C010078112787FF12C04F
:101510008B819C8104970091C7011091C8010150F3
:1015200011098017910708F48C016FE072E0C8017F
:101530000E949F03F801E15FFD4F1082F092CB0102
:1015400040E46EE180E80E94C60380910C0288238B
:1015500069F08091E101823009F4EAC008F0E2C04C
:10156000882309F46BC1813009F488C10115110584
:1015700009F015C280910B02857029F18091090252
:1015800090910A02892BF9F461E184ED0E94F7033E
:1015900061E082ED0E94F7038AEE0E94110480FD53
:1015A000FBCF60E082ED0E94F70389ED0E941104F9
:1015B00082FF09C085E092E00E94BF0580910B0286
:1015C000886080930B028091090290910A02019633
:1015D00090930A028093090280910402813009F0FD
:1015E00069C080910B0281FF65C082E08093040294
:1015F00080912F018F5F80932F01182F1F718AEF29
:1016000091E00E940A016AEF71E0882309F4C4C1E5
:101610008CEE91E00E94290608E000931B021092D4
:101620001C0249E050E064EC70E08DE192E00E9421
:10163000900E60922002409226020E947E03109239
:101640003302109234028BE0809331021093320205
:10165000E5E3F2E0DF011D920A95E9F780912E01A2
:10166000809337028D5F80932E0150923D0282E07D
:1016700080933E0270923F0210924002109241020B
:10168000109242021092430210924402809345024B
:10169000E09246028093470286E28093480222E06D
:1016A00040E250E06AE182E30E942B038AE390E08B
:1016B0000E94290480E092E00E940A01882371F0D0
:1016C0008091FF0181110AC08091FE01811106C045
:1016D00080E092E00E94BF05F092FE018AEF91E067
:1016E0000E940A01882371F08091F90181110AC0DA
:1016F0008091F801811106C08AEF91E00E94BF0538
:10170000F092F80180E090E0892B09F4CCCE0E94A1
:101710009401882309F4BFCE0E940000BCCE615022
:101720007109CFCE833009F455C0843009F01ECF43
:1017300065E0C8010E94BA04882309F4CAC08091F8
:10174000D001811108C088E30E941104682F6E7FC8
:1017500088E30E94F70369E472E087E094E00E9466
:10176000B705E9E2F3E0C801815F9D4F4C016F01CD
:1017700092E0C90ED11C21808081863009F4FBC023
:1017800008F0BEC0813009F4ECC0833009F4EFC02A
:10179000F601E20DF11DE815F90548F30E94D902A2
:1017A0006093D9017093DA018093DB019093DC019F
:1017B00080910502882359F010920A0210920902C2
:1017C000F0920B0265E072E0CB010E94B7057092C7
:1017D000E101CCCE8090DD019090DE01A090DF0190
:1017E000B090E0012FEF82169206A206B20609F42D
:1017F000BDCE0E94D9022091D9013091DA014091E9
:10180000DB015091DC01621B730B840B950B681597
:1018100079058A059B0508F4A9CE87E094E00E942B
:101820003B06E092E1010E94D9026093D5017093DA
:10183000D6018093D7019093D80198CE0E94D90207
:101840006093D1017093D2018093D3019093D4011E
:10185000E7E0F4E0DF012E2D1D922A95E9F790E0F4
:1018600080E00E943B0688E30E941104682F6160BB
:1018700088E30E94F703F092E101D5CF62E0C8014E
:101880000E94BA04882329F169E472E0CE0101962E
:101890000E94B705E9E2F3E0C801815F9D4FBF01F7
:1018A0006E5F7F4F21813081363361F48CEC91E0A3
:1018B0000E94B705CE0101960E943B0682E080930C
:1018C000E101B1CFFB01E20FF11DE817F90738F391
:1018D000F1CF0E94D9022091D5013091D6014091DB
:1018E000D7015091D801621B730B840B950B6131AA
:1018F00077428105910508F439CE1092E10136CE88
:101900008A3331F08F3F09F449CF833309F040CF58
:101910001092DD011092DE011092DF011092E001C1
:10192000F601C601049620E030E0A9016191542F30
:10193000432F322F2227260F311D411D511D8E1797
:101940009F07A1F72F3FAFEF3A074A075A07B9F4AD
:101950002093DD013093DE014093DF015093E001DD
:1019600017CFB60183E094E00E94B70511CFB6010E
:1019700085E092E0F9CFB60180E092E0F5CFA8EEE5
:10198000B3E00E94990E6093DD017093DE018093B5
:10199000DF019093E001FCCE82EF91E03BCE093273
:1019A000110508F4AFCE80911B02883009F0AACE51
:1019B00080911C02863009F03EC144E050E067E0AF
:1019C00074E085E392E00E94DB0E892B09F09ACE49
:1019D00080912402813029F585E192E00E94AC05D6
:1019E0001092230282E08093240265E272E08FE28B
:1019F00092E00E948D0562EE71E085E292E00E9425
:101A00008D056BE272E085E392E00E94B70567E026
:101A100074E08BE292E00E94B7058AE290E00E94B7
:101A2000290480910B0283FF0DC010912402123013
:101A300049F462EF71E085E092E00E949505811122
:101A400010930B028091FF01811110C08091FE0163
:101A5000882361F06CEE71E080E092E00E949505D1
:101A6000882321F0F092FF011092FE018091F9018C
:101A7000811148CE8091F801882309F443CE6CEEA1
:101A800071E08AEF91E00E949505882309F43ACE2F
:101A9000F092F9011092F80135CE0633110508F4E1
:101AA00031CE863009F02ECE809133028B3009F092
:101AB0004CC044E050E06AEF71E089E292E00E949D
:101AC000DB0E892B09F01ECE10913E0212FF04C0DE
:101AD00085E08093040216CE0E94E5022091040264
:101AE0002230F9F4212F20711271123179F460E063
:101AF00090E080E00E94050688E180933E027092AB
:101B0000040290E080E00E948904FCCDF09204027F
:101B10000196222311F090E080E064E00E94050627
:101B2000F1CD253009F4EECD10FF0AC0233009F4C1
:101B3000E9CD69E001960E94050640920402E2CDDB
:101B400060E0009709F4DECDE9CF8111DBCD809113
:101B50003402803509F0D6CDD0903E02D1FE35C09A
:101B600010921F02609220020E94F305B2E1B0932E
:101B70003E0260E081E090E00E9400031092350296
:101B80001092360280912E01809337021092380213
:101B90008D5F80932E0182E080934502E0924602A1
:101BA00085E0809347021092480250923D02809354
:101BB0003F023092400222E040E250E06AE182E3DC
:101BC0000E942B038AE390E07BC0D4FE9BCD0E9451
:101BD000E50290930E0280930D02892B31F18091E2
:101BE0003D0290E024E0959587952A95E1F7880FCE
:101BF000991F880F991F82960817190708F482CD3C
:101C000040EF50E06DEC70E085E492E00E94900EB1
:101C100060E080910D0290910E020E94050629E17C
:101C200020933E028FEE90E06ECFD0FE6BCD60E051
:101C300090E080E073CF0932110509F463CD811182
:101C400061CD80911D02853409F05CCD44E050E007
:101C500067E074E08DE292E00E94DB0E892BA9F030
:101C600044E050E068EE71E08DE292E00E94DB0E0D
:101C7000892B59F044E050E062E471E08DE292E09B
:101C80000E94DB0E892B09F03DCD80912602813028
:101C900009F003CF80913102883009F033CD0E94E2
:101CA000F3051092310280913302883F28F0909121
:101CB00034029F5F90933402885F80933302C8019F
:101CC0000E9429041FCDEBE0F4E01382128288EE1B
:101CD00093E0A0E0B0E084839583A683B78384E398
:101CE00091E09183808385EC90E09587848784ECF4
:101CF00090E09787868780EC90E0918B808B81ECD9
:101D000090E0938B828B82EC90E0958B848B86ECB9
:101D100090E0978B868B118E128E138E148E089501
:101D2000FB01DC0102C005900D9241505040D8F7F4
:101D300008950E94C60EA59F900DB49F900DA49F7C
:101D4000800D911D11240895A1E21A2EAA1BBB1B20
:101D5000FD010DC0AA1FBB1FEE1FFF1FA217B30777
:101D6000E407F50720F0A21BB30BE40BF50B661F8D
:101D7000771F881F991F1A9469F760957095809551
:101D800090959B01AC01BD01CF010895A29FB001C8
:101D9000B39FC001A39F700D811D1124911DB29F9F
:101DA000700D811D1124911D0895EE0FFF1F0590E8
:101DB000F491E02D0994FB01DC0104C08D910190A8
:101DC000801921F441505040C8F7881B990B0895A1
:041DD000F894FFCFB5
:101DD40041726475696E6F2D454E4332386A3630F0
:101DE4002D30300000000000000000000000000062
:101DF400C0A8006FC0A800C87469692D30310A01F9
:101E040000000000CA012A01570117028801660177
:101E14007A01FFFFFFFFFFFF0D0A000A5B626163A7
:101E24006B536F6F6E5D004661696C656420746FFF
:101E3400206163636573732045746865726E6574AD
:101E440020636F6E74726F6C6C65720049503A2037
:0E1E5400200047573A202000444E533A200009
:00000001FF
